{
  "_format": "hh-sol-artifact-1",
  "contractName": "CertificateRegistry",
  "sourceName": "contracts/Certificate.sol",
  "abi": [
    {
      "anonymous": false,
      "inputs": [
        {
          "indexed": true,
          "internalType": "bytes32",
          "name": "certificateHash",
          "type": "bytes32"
        },
        {
          "indexed": true,
          "internalType": "address",
          "name": "issuer",
          "type": "address"
        },
        {
          "indexed": false,
          "internalType": "string",
          "name": "recipientName",
          "type": "string"
        },
        {
          "indexed": false,
          "internalType": "string",
          "name": "course",
          "type": "string"
        }
      ],
      "name": "CertificateIssued",
      "type": "event"
    },
    {
      "inputs": [
        {
          "internalType": "bytes32",
          "name": "certificateHash",
          "type": "bytes32"
        }
      ],
      "name": "certificateExists",
      "outputs": [
        {
          "internalType": "bool",
          "name": "exists",
          "type": "bool"
        }
      ],
      "stateMutability": "view",
      "type": "function"
    },
    {
      "inputs": [
        {
          "internalType": "bytes32",
          "name": "certificateHash",
          "type": "bytes32"
        },
        {
          "internalType": "string",
          "name": "recipientName",
          "type": "string"
        },
        {
          "internalType": "string",
          "name": "course",
          "type": "string"
        }
      ],
      "name": "issueCertificate",
      "outputs": [],
      "stateMutability": "nonpayable",
      "type": "function"
    },
    {
      "inputs": [
        {
          "internalType": "bytes32",
          "name": "certificateHash",
          "type": "bytes32"
        }
      ],
      "name": "verifyCertificate",
      "outputs": [
        {
          "internalType": "address",
          "name": "issuer",
          "type": "address"
        },
        {
          "internalType": "string",
          "name": "recipientName",
          "type": "string"
        },
        {
          "internalType": "string",
          "name": "course",
          "type": "string"
        },
        {
          "internalType": "uint256",
          "name": "issuedAt",
          "type": "uint256"
        }
      ],
      "stateMutability": "view",
      "type": "function"
    }
  ],
  "bytecode": "0x608060405234801561001057600080fd5b50610d1f806100206000396000f3fe608060405234801561001057600080fd5b50600436106100415760003560e01c8063850c176814610046578063abde212b14610079578063b440983e14610095575b600080fd5b610060600480360381019061005b9190610587565b6100c5565b604051610070949392919061069e565b60405180910390f35b610093600480360381019061008e9190610756565b6102db565b005b6100af60048036038101906100aa9190610587565b610525565b6040516100bc9190610806565b60405180910390f35b60006060806000806000808781526020019081526020016000206040518060800160405290816000820160009054906101000a900473ffffffffffffffffffffffffffffffffffffffff1673ffffffffffffffffffffffffffffffffffffffff1673ffffffffffffffffffffffffffffffffffffffff16815260200160018201805461015090610850565b80601f016020809104026020016040519081016040528092919081815260200182805461017c90610850565b80156101c95780601f1061019e576101008083540402835291602001916101c9565b820191906000526020600020905b8154815290600101906020018083116101ac57829003601f168201915b505050505081526020016002820180546101e290610850565b80601f016020809104026020016040519081016040528092919081815260200182805461020e90610850565b801561025b5780601f106102305761010080835404028352916020019161025b565b820191906000526020600020905b81548152906001019060200180831161023e57829003601f168201915b50505050508152602001600382015481525050905060008160600151036102b7576040517f08c379a00000000000000000000000000000000000000000000000000000000081526004016102ae906108cd565b60405180910390fd5b80600001518160200151826040015183606001519450945094509450509193509193565b6000801b8503610320576040517f08c379a000000000000000000000000000000000000000000000000000000000815260040161031790610939565b60405180910390fd5b60008060008781526020019081526020016000206003015414610378576040517f08c379a000000000000000000000000000000000000000000000000000000000815260040161036f906109a5565b60405180910390fd5b60405180608001604052803373ffffffffffffffffffffffffffffffffffffffff16815260200185858080601f016020809104026020016040519081016040528093929190818152602001838380828437600081840152601f19601f82011690508083019250505050505050815260200183838080601f016020809104026020016040519081016040528093929190818152602001838380828437600081840152601f19601f8201169050808301925050505050505081526020014281525060008087815260200190815260200160002060008201518160000160006101000a81548173ffffffffffffffffffffffffffffffffffffffff021916908373ffffffffffffffffffffffffffffffffffffffff16021790555060208201518160010190816104a59190610ba0565b5060408201518160020190816104bb9190610ba0565b50606082015181600301559050503373ffffffffffffffffffffffffffffffffffffffff16857f4c451700995b8d979fcd8236183ff98b9f4f729ab208512f6fcbb7e1ed0b4960868686866040516105169493929190610cae565b60405180910390a35050505050565b6000806000808481526020019081526020016000206003015414159050919050565b600080fd5b600080fd5b6000819050919050565b61056481610551565b811461056f57600080fd5b50565b6000813590506105818161055b565b92915050565b60006020828403121561059d5761059c610547565b5b60006105ab84828501610572565b91505092915050565b600073ffffffffffffffffffffffffffffffffffffffff82169050919050565b60006105df826105b4565b9050919050565b6105ef816105d4565b82525050565b600081519050919050565b600082825260208201905092915050565b60005b8381101561062f578082015181840152602081019050610614565b60008484015250505050565b6000601f19601f8301169050919050565b6000610657826105f5565b6106618185610600565b9350610671818560208601610611565b61067a8161063b565b840191505092915050565b6000819050919050565b61069881610685565b82525050565b60006080820190506106b360008301876105e6565b81810360208301526106c5818661064c565b905081810360408301526106d9818561064c565b90506106e8606083018461068f565b95945050505050565b600080fd5b600080fd5b600080fd5b60008083601f840112610716576107156106f1565b5b8235905067ffffffffffffffff811115610733576107326106f6565b5b60208301915083600182028301111561074f5761074e6106fb565b5b9250929050565b60008060008060006060868803121561077257610771610547565b5b600061078088828901610572565b955050602086013567ffffffffffffffff8111156107a1576107a061054c565b5b6107ad88828901610700565b9450945050604086013567ffffffffffffffff8111156107d0576107cf61054c565b5b6107dc88828901610700565b92509250509295509295909350565b60008115159050919050565b610800816107eb565b82525050565b600060208201905061081b60008301846107f7565b92915050565b7f4e487b7100000000000000000000000000000000000000000000000000000000600052602260045260246000fd5b6000600282049050600182168061086857607f821691505b60208210810361087b5761087a610821565b5b50919050565b7f4365727469666963617465206e6f7420666f756e640000000000000000000000600082015250565b60006108b7601583610600565b91506108c282610881565b602082019050919050565b600060208201905081810360008301526108e6816108aa565b9050919050565b7f496e76616c696420686173680000000000000000000000000000000000000000600082015250565b6000610923600c83610600565b915061092e826108ed565b602082019050919050565b6000602082019050818103600083015261095281610916565b9050919050565b7f436572746966696361746520616c726561647920697373756564000000000000600082015250565b600061098f601a83610600565b915061099a82610959565b602082019050919050565b600060208201905081810360008301526109be81610982565b9050919050565b7f4e487b7100000000000000000000000000000000000000000000000000000000600052604160045260246000fd5b60008190508160005260206000209050919050565b60006020601f8301049050919050565b600082821b905092915050565b600060088302610a567fffffffffffffffffffffffffffffffffffffffffffffffffffffffffffffffff82610a19565b610a608683610a19565b95508019841693508086168417925050509392505050565b6000819050919050565b6000610a9d610a98610a9384610685565b610a78565b610685565b9050919050565b6000819050919050565b610ab783610a82565b610acb610ac382610aa4565b848454610a26565b825550505050565b600090565b610ae0610ad3565b610aeb818484610aae565b505050565b5b81811015610b0f57610b04600082610ad8565b600181019050610af1565b5050565b601f821115610b5457610b25816109f4565b610b2e84610a09565b81016020851015610b3d578190505b610b51610b4985610a09565b830182610af0565b50505b505050565b600082821c905092915050565b6000610b7760001984600802610b59565b1980831691505092915050565b6000610b908383610b66565b9150826002028217905092915050565b610ba9826105f5565b67ffffffffffffffff811115610bc257610bc16109c5565b5b610bcc8254610850565b610bd7828285610b13565b600060209050601f831160018114610c0a5760008415610bf8578287015190505b610c028582610b84565b865550610c6a565b601f198416610c18866109f4565b60005b82811015610c4057848901518255600182019150602085019450602081019050610c1b565b86831015610c5d5784890151610c59601f891682610b66565b8355505b6001600288020188555050505b505050505050565b82818337600083830152505050565b6000610c8d8385610600565b9350610c9a838584610c72565b610ca38361063b565b840190509392505050565b60006040820190508181036000830152610cc9818688610c81565b90508181036020830152610cde818486610c81565b90509594505050505056fea2646970667358221220695825c3e572bb47486bdceb28a859b5e534691961d3f377d513700088b84c4364736f6c63430008140033",
  "linkReferences": {},
  "deployedLinkReferences": {}
}